{
  "contractName": "PixelCoin",
  "abi": [
    {
      "constant": true,
      "inputs": [],
      "name": "info",
      "outputs": [
        {
          "internalType": "string",
          "name": "",
          "type": "string"
        }
      ],
      "payable": false,
      "stateMutability": "pure",
      "type": "function"
    },
    {
      "constant": true,
      "inputs": [],
      "name": "getMaxPixelCount",
      "outputs": [
        {
          "internalType": "uint32",
          "name": "",
          "type": "uint32"
        }
      ],
      "payable": false,
      "stateMutability": "pure",
      "type": "function"
    },
    {
      "constant": false,
      "inputs": [
        {
          "internalType": "uint32",
          "name": "_index",
          "type": "uint32"
        },
        {
          "internalType": "uint32",
          "name": "_color",
          "type": "uint32"
        }
      ],
      "name": "setPixel",
      "outputs": [],
      "payable": false,
      "stateMutability": "nonpayable",
      "type": "function"
    },
    {
      "constant": true,
      "inputs": [
        {
          "internalType": "uint32",
          "name": "_index",
          "type": "uint32"
        }
      ],
      "name": "getPixel",
      "outputs": [
        {
          "internalType": "uint32",
          "name": "",
          "type": "uint32"
        }
      ],
      "payable": false,
      "stateMutability": "view",
      "type": "function"
    },
    {
      "constant": true,
      "inputs": [],
      "name": "getAllPixels",
      "outputs": [
        {
          "internalType": "uint32[]",
          "name": "",
          "type": "uint32[]"
        }
      ],
      "payable": false,
      "stateMutability": "view",
      "type": "function"
    }
  ],
  "bytecode": "0x608060405234801561001057600080fd5b50610421806100206000396000f3fe608060405234801561001057600080fd5b50600436106100575760003560e01c8063165334711461005c578063370158ea1461008657806370d72d63146101095780637cbd4d2914610168578063816d21f2146101ac575b600080fd5b610064610200565b604051808263ffffffff1663ffffffff16815260200191505060405180910390f35b61008e61020b565b6040518080602001828103825283818151815260200191508051906020019080838360005b838110156100ce5780820151818401526020810190506100b3565b50505050905090810190601f1680156100fb5780820380516001836020036101000a031916815260200191505b509250505060405180910390f35b610111610248565b6040518080602001828103825283818151815260200191508051906020019060200280838360005b83811015610154578082015181840152602081019050610139565b505050509050019250505060405180910390f35b6101aa6004803603604081101561017e57600080fd5b81019080803563ffffffff169060200190929190803563ffffffff169060200190929190505050610313565b005b6101de600480360360208110156101c257600080fd5b81019080803563ffffffff169060200190929190505050610384565b604051808263ffffffff1663ffffffff16815260200191505060405180910390f35b600062100000905090565b60606040518060400160405280601a81526020017f506978656c436f696e20627920416c6578204865726974696572000000000000815250905090565b6060806210000063ffffffff166040519080825280602002602001820160405280156102835781602001602082028038833980820191505090505b50905060008090505b6210000063ffffffff168163ffffffff16101561030b576000808263ffffffff1663ffffffff16815260200190815260200160002060009054906101000a900463ffffffff16828263ffffffff16815181106102e457fe5b602002602001019063ffffffff16908163ffffffff1681525050808060010191505061028c565b508091505090565b8160008163ffffffff161015801561033957506210000063ffffffff168163ffffffff16105b61034257600080fd5b816000808563ffffffff1663ffffffff16815260200190815260200160002060006101000a81548163ffffffff021916908363ffffffff160217905550505050565b60008160008163ffffffff16101580156103ac57506210000063ffffffff168163ffffffff16105b6103b557600080fd5b6000808463ffffffff1663ffffffff16815260200190815260200160002060009054906101000a900463ffffffff1691505091905056fea265627a7a72315820867dcad7034e8e1086d3629d3c5c66dd9a650abc63bf4be2944b90d849a4d8cd64736f6c63430005100032",
  "source": "pragma solidity >=0.4.18;\n\ncontract PixelCoin {\n  uint32 constant maxPixelCount = 1024 ** 2;\n\n  mapping (uint32 => uint32) pixels;\n\n  modifier withinBounds(uint32 _index) {\n    require(_index >= 0 && _index < maxPixelCount);\n    _;\n  }\n\n  function info() public pure returns (string memory) {\n    return (\"PixelCoin by Alex Heritier\");\n  }\n\n  function getMaxPixelCount() public pure returns (uint32) {\n    return maxPixelCount;\n  }\n\n  function setPixel(uint32 _index, uint32 _color) withinBounds(_index) public {\n    pixels[_index] = _color;\n  }\n\n  function getPixel(uint32 _index) public view withinBounds(_index) returns (uint32) {\n    return pixels[_index];\n  }\n\n  function getAllPixels() public view returns (uint32[] memory) {\n    uint32[] memory allPixels = new uint32[](maxPixelCount);\n    for (uint32 i = 0; i < maxPixelCount; i++) {\n      allPixels[i] = pixels[i];\n    }\n    return allPixels;\n  }\n}\n",
  "sourcePath": "/Users/alex/Documents/Me/Projects/eth-contract/contracts/PixelCoin.sol",
  "compiler": {
    "name": "solc",
    "version": "0.5.16+commit.9c3226ce.Emscripten.clang"
  },
  "schemaVersion": "3.3.4",
  "updatedAt": "2021-03-05T02:12:09.281Z",
  "devdoc": {
    "methods": {}
  },
  "userdoc": {
    "methods": {}
  }
}