{
  "contractName": "Yolo",
  "abi": [
    {
      "constant": true,
      "inputs": [],
      "name": "hi",
      "outputs": [
        {
          "internalType": "string",
          "name": "",
          "type": "string"
        }
      ],
      "payable": false,
      "stateMutability": "pure",
      "type": "function"
    },
    {
      "constant": false,
      "inputs": [
        {
          "internalType": "string",
          "name": "_word",
          "type": "string"
        }
      ],
      "name": "rememberThisWord",
      "outputs": [],
      "payable": false,
      "stateMutability": "nonpayable",
      "type": "function"
    }
  ],
  "bytecode": "0x608060405234801561001057600080fd5b506102d2806100206000396000f3fe608060405234801561001057600080fd5b50600436106100365760003560e01c80639fdd3b801461003b578063a99dca3f146100f6575b600080fd5b6100f46004803603602081101561005157600080fd5b810190808035906020019064010000000081111561006e57600080fd5b82018360208201111561008057600080fd5b803590602001918460018302840111640100000000831117156100a257600080fd5b91908080601f016020809104026020016040519081016040528093929190818152602001838380828437600081840152601f19601f820116905080830192505050505050509192919290505050610179565b005b6100fe6101bb565b6040518080602001828103825283818151815260200191508051906020019080838360005b8381101561013e578082015181840152602081019050610123565b50505050905090810190601f16801561016b5780820380516001836020036101000a031916815260200191505b509250505060405180910390f35b60008190806001815401808255809150509060018203906000526020600020016000909192909190915090805190602001906101b69291906101f8565b505050565b60606040518060400160405280600b81526020017f48656c6c6f20576f726c64000000000000000000000000000000000000000000815250905090565b828054600181600116156101000203166002900490600052602060002090601f016020900481019282601f1061023957805160ff1916838001178555610267565b82800160010185558215610267579182015b8281111561026657825182559160200191906001019061024b565b5b5090506102749190610278565b5090565b61029a91905b8082111561029657600081600090555060010161027e565b5090565b9056fea265627a7a72315820cccb09ff4da967be4fa8648438b070a1fd8880f9bd6ca46010f0bfcb2b17c92664736f6c63430005100032",
  "source": "pragma solidity >=0.4.18;\n\ncontract Yolo {\n  string[] words;\n\n  function hi() public pure returns (string memory) {\n    return (\"Hello World\");\n  }\n\n  function rememberThisWord(string memory _word) public {\n    words.push(_word);\n  }\n}\n",
  "sourcePath": "/Users/alex/Documents/Me/Projects/eth-contract/contracts/Yolo.sol",
  "compiler": {
    "name": "solc",
    "version": "0.5.16+commit.9c3226ce.Emscripten.clang"
  },
  "schemaVersion": "3.3.4",
  "updatedAt": "2021-03-04T03:17:21.404Z",
  "devdoc": {
    "methods": {}
  },
  "userdoc": {
    "methods": {}
  }
}